{
  "_format": "hh-sol-artifact-1",
  "contractName": "TaskContract",
  "sourceName": "contracts/TaskContract.sol",
  "abi": [
    {
      "anonymous": false,
      "inputs": [
        {
          "indexed": false,
          "internalType": "address",
          "name": "recipient",
          "type": "address"
        },
        {
          "indexed": false,
          "internalType": "uint256",
          "name": "taskId",
          "type": "uint256"
        }
      ],
      "name": "AddTask",
      "type": "event"
    },
    {
      "anonymous": false,
      "inputs": [
        {
          "indexed": false,
          "internalType": "uint256",
          "name": "taskId",
          "type": "uint256"
        },
        {
          "indexed": false,
          "internalType": "bool",
          "name": "isDeleted",
          "type": "bool"
        }
      ],
      "name": "DeleteTask",
      "type": "event"
    },
    {
      "inputs": [
        {
          "internalType": "string",
          "name": "taskText",
          "type": "string"
        },
        {
          "internalType": "bool",
          "name": "isDeleted",
          "type": "bool"
        }
      ],
      "name": "addTask",
      "outputs": [],
      "stateMutability": "nonpayable",
      "type": "function"
    },
    {
      "inputs": [
        {
          "internalType": "uint256",
          "name": "taskId",
          "type": "uint256"
        },
        {
          "internalType": "bool",
          "name": "isDeleted",
          "type": "bool"
        }
      ],
      "name": "deleteTask",
      "outputs": [],
      "stateMutability": "nonpayable",
      "type": "function"
    },
    {
      "inputs": [],
      "name": "getMyTasks",
      "outputs": [
        {
          "components": [
            {
              "internalType": "uint256",
              "name": "id",
              "type": "uint256"
            },
            {
              "internalType": "address",
              "name": "username",
              "type": "address"
            },
            {
              "internalType": "string",
              "name": "taskText",
              "type": "string"
            },
            {
              "internalType": "bool",
              "name": "isDeleted",
              "type": "bool"
            }
          ],
          "internalType": "struct TaskContract.Task[]",
          "name": "",
          "type": "tuple[]"
        }
      ],
      "stateMutability": "view",
      "type": "function"
    }
  ],
  "bytecode": "0x608060405234801561001057600080fd5b50610e5c806100206000396000f3fe608060405234801561001057600080fd5b50600436106100415760003560e01c806320df4581146100465780636e13f81814610062578063aaba290714610080575b600080fd5b610060600480360381019061005b91906108f6565b61009c565b005b61006a610229565b6040516100779190610b2e565b60405180910390f35b61009a6004803603810190610095919061094a565b610679565b005b600080805490509050600060405180608001604052808381526020013373ffffffffffffffffffffffffffffffffffffffff16815260200185815260200184151581525090806001815401808255809150506001900390600052602060002090600402016000909190919091506000820151816000015560208201518160010160006101000a81548173ffffffffffffffffffffffffffffffffffffffff021916908373ffffffffffffffffffffffffffffffffffffffff1602179055506040820151816002019080519060200190610176929190610781565b5060608201518160030160006101000a81548160ff0219169083151502179055505050336001600083815260200190815260200160002060006101000a81548173ffffffffffffffffffffffffffffffffffffffff021916908373ffffffffffffffffffffffffffffffffffffffff1602179055507f1f54e1ba1832d428fbd7e7792beaf62b1fc5a382c207ffd614209c1413e94fda338260405161021c929190610b05565b60405180910390a1505050565b60606000808054905067ffffffffffffffff811115610271577f4e487b7100000000000000000000000000000000000000000000000000000000600052604160045260246000fd5b6040519080825280602002602001820160405280156102aa57816020015b610297610807565b81526020019060019003908161028f5790505b5090506000805b60008054905081101561054d573373ffffffffffffffffffffffffffffffffffffffff166001600083815260200190815260200160002060009054906101000a900473ffffffffffffffffffffffffffffffffffffffff1673ffffffffffffffffffffffffffffffffffffffff16148015610382575060008181548110610361577f4e487b7100000000000000000000000000000000000000000000000000000000600052603260045260246000fd5b906000526020600020906004020160030160009054906101000a900460ff16155b1561053a57600081815481106103c1577f4e487b7100000000000000000000000000000000000000000000000000000000600052603260045260246000fd5b9060005260206000209060040201604051806080016040529081600082015481526020016001820160009054906101000a900473ffffffffffffffffffffffffffffffffffffffff1673ffffffffffffffffffffffffffffffffffffffff1673ffffffffffffffffffffffffffffffffffffffff16815260200160028201805461044a90610cae565b80601f016020809104026020016040519081016040528092919081815260200182805461047690610cae565b80156104c35780601f10610498576101008083540402835291602001916104c3565b820191906000526020600020905b8154815290600101906020018083116104a657829003601f168201915b505050505081526020016003820160009054906101000a900460ff161515151581525050838381518110610520577f4e487b7100000000000000000000000000000000000000000000000000000000600052603260045260246000fd5b6020026020010181905250818061053690610d11565b9250505b808061054590610d11565b9150506102b1565b5060008167ffffffffffffffff811115610590577f4e487b7100000000000000000000000000000000000000000000000000000000600052604160045260246000fd5b6040519080825280602002602001820160405280156105c957816020015b6105b6610807565b8152602001906001900390816105ae5790505b50905060005b8281101561066f57838181518110610610577f4e487b7100000000000000000000000000000000000000000000000000000000600052603260045260246000fd5b6020026020010151828281518110610651577f4e487b7100000000000000000000000000000000000000000000000000000000600052603260045260246000fd5b6020026020010181905250808061066790610d11565b9150506105cf565b5080935050505090565b3373ffffffffffffffffffffffffffffffffffffffff166001600084815260200190815260200160002060009054906101000a900473ffffffffffffffffffffffffffffffffffffffff1673ffffffffffffffffffffffffffffffffffffffff16141561077d57806000838154811061071b577f4e487b7100000000000000000000000000000000000000000000000000000000600052603260045260246000fd5b906000526020600020906004020160030160006101000a81548160ff0219169083151502179055507ff88a35c3d2016c409a46570b994a17b408dbc83c14a03f521512d50b85386d068282604051610774929190610b50565b60405180910390a15b5050565b82805461078d90610cae565b90600052602060002090601f0160209004810192826107af57600085556107f6565b82601f106107c857805160ff19168380011785556107f6565b828001600101855582156107f6579182015b828111156107f55782518255916020019190600101906107da565b5b5090506108039190610847565b5090565b604051806080016040528060008152602001600073ffffffffffffffffffffffffffffffffffffffff168152602001606081526020016000151581525090565b5b80821115610860576000816000905550600101610848565b5090565b600061087761087284610b9e565b610b79565b90508281526020810184848401111561088f57600080fd5b61089a848285610c6c565b509392505050565b6000813590506108b181610df8565b92915050565b600082601f8301126108c857600080fd5b81356108d8848260208601610864565b91505092915050565b6000813590506108f081610e0f565b92915050565b6000806040838503121561090957600080fd5b600083013567ffffffffffffffff81111561092357600080fd5b61092f858286016108b7565b9250506020610940858286016108a2565b9150509250929050565b6000806040838503121561095d57600080fd5b600061096b858286016108e1565b925050602061097c858286016108a2565b9150509250929050565b60006109928383610a84565b905092915050565b6109a381610c24565b82525050565b6109b281610c24565b82525050565b60006109c382610bdf565b6109cd8185610c02565b9350836020820285016109df85610bcf565b8060005b85811015610a1b57848403895281516109fc8582610986565b9450610a0783610bf5565b925060208a019950506001810190506109e3565b50829750879550505050505092915050565b610a3681610c36565b82525050565b610a4581610c36565b82525050565b6000610a5682610bea565b610a608185610c13565b9350610a70818560208601610c7b565b610a7981610de7565b840191505092915050565b6000608083016000830151610a9c6000860182610ae7565b506020830151610aaf602086018261099a565b5060408301518482036040860152610ac78282610a4b565b9150506060830151610adc6060860182610a2d565b508091505092915050565b610af081610c62565b82525050565b610aff81610c62565b82525050565b6000604082019050610b1a60008301856109a9565b610b276020830184610af6565b9392505050565b60006020820190508181036000830152610b4881846109b8565b905092915050565b6000604082019050610b656000830185610af6565b610b726020830184610a3c565b9392505050565b6000610b83610b94565b9050610b8f8282610ce0565b919050565b6000604051905090565b600067ffffffffffffffff821115610bb957610bb8610db8565b5b610bc282610de7565b9050602081019050919050565b6000819050602082019050919050565b600081519050919050565b600081519050919050565b6000602082019050919050565b600082825260208201905092915050565b600082825260208201905092915050565b6000610c2f82610c42565b9050919050565b60008115159050919050565b600073ffffffffffffffffffffffffffffffffffffffff82169050919050565b6000819050919050565b82818337600083830152505050565b60005b83811015610c99578082015181840152602081019050610c7e565b83811115610ca8576000848401525b50505050565b60006002820490506001821680610cc657607f821691505b60208210811415610cda57610cd9610d89565b5b50919050565b610ce982610de7565b810181811067ffffffffffffffff82111715610d0857610d07610db8565b5b80604052505050565b6000610d1c82610c62565b91507fffffffffffffffffffffffffffffffffffffffffffffffffffffffffffffffff821415610d4f57610d4e610d5a565b5b600182019050919050565b7f4e487b7100000000000000000000000000000000000000000000000000000000600052601160045260246000fd5b7f4e487b7100000000000000000000000000000000000000000000000000000000600052602260045260246000fd5b7f4e487b7100000000000000000000000000000000000000000000000000000000600052604160045260246000fd5b6000601f19601f8301169050919050565b610e0181610c36565b8114610e0c57600080fd5b50565b610e1881610c62565b8114610e2357600080fd5b5056fea2646970667358221220b0b902cfcaf4c251b72f1b9d1f084fda70a0884e6f967ac0080b369461e2669464736f6c63430008040033",
  "linkReferences": {},
  "deployedLinkReferences": {}
}